:020000040800F2
:10000000780C0020CD4D00085D4C00085F4C0008C6
:10001000614C0008634C0008654C000800000000BB
:10002000000000000000000000000000674C000815
:10003000694C0008000000006B4C00086D4C000883
:10004000F14D0008F54D0008F94D0008FD4D000880
:10005000014E0008054E0008094E00080D4E00082C
:10006000114E0008154E0008194E00081D4E0008DC
:10007000214E0008254E0008294E00082D4E00088C
:10008000314E0008354E0008394E00083D4E00083C
:10009000414E0008454E0008494E00084D4E0008EC
:1000A0008D4C0008514E00087B4C0008554E00084E
:1000B000594E00085D4E0008614E0008654E00086C
:1000C000694E00086D4E0008714E0008754E00081C
:1000D000794E00087D4E0008814E0008854E0008CC
:1000E000894E00088D4E0008914E00080000000067
:1000F0000000000000000000000000000000000000
:10010000954E00080000000000000000994E000815
:100110009D4E0008A14E0008A54E000800000000FA
:10012000A94E0008AD4E00089F4C0008B14E0008D3
:10013000B54E0008000000000000000000000000B4
:10014000B94E0008BD4E000800000000000000008D
:10015000000000000000000000000000000000009F
:10016000C14E0008C54E0008C94E0008CD4E00081B
:10017000D14E0008D54E0008D94E0008DD4E0008CB
:10018000E14E0008E54E00080000000000000000FD
:10019000E94E00082DE9F14FB2B09946924600238E
:1001A0000691CDE900333C9A0F930DF14A01149169
:1001B0004A7011E0329E57462C4617F8011B0698EC
:1001C000B0470028069000F026810F98401C641E5E
:1001D0000F90F2D13296AA449AF80000252808D14F
:1001E0000021002209910A920B910C920D910E921E
:1001F0000FE06A464FF0FF31504601F07FF80500EE
:1002000002D10F9800F066BED4D50125E3E741F096
:1002100001011AF8010F2028F9D023280CD02B282F
:1002200004D02D2805D0302809D00BE041F0020180
:10023000EFE741F00401ECE741F00801E9E741F0A4
:100240001001E6E72A280FD1D9F8002052F8040B54
:10025000C9F800200028119003D54042119041F0C8
:1002600004010AF1010A14E01192DFF8EC3B0AE004
:100270001198984205DA00EB800402EB4402303A10
:1002800011920AF1010A9AF80020A2F130000A281E
:10029000EED39AF800002E2803D04FF0FF321092D0
:1002A00029E01AF8010F2A2809D1D9F8000050F8DE
:1002B000042BC9F8000010920AF1010A1BE02D2856
:1002C0000CBF0AF1010A002000221092DFF8882BEF
:1002D0000BE040B9109B934205DA03EB830504EB76
:1002E0004504303C10940AF1010A9AF80040A4F148
:1002F00030030A2BEDD3ADF848100FF660309AF8B2
:10030000001001F005F808B11AF8010B8DF84A0049
:100310009DF84A00682805D19AF8000068280CD199
:10032000622106E06C2804BF9AF800006C2804D112
:1003300071218DF84A100AF1010A1FA808901AF8D5
:1003400001BBBBF125012DD01C3900F06181091FD3
:10035000022940F25D810E392AD0491F00F0B38492
:10036000093900F05581891E00F04985491E00F0C9
:10037000F584491E022940F24B81091F00F0EE84EA
:10038000491F00F0BA80491E00F09D84491E65D0C7
:10039000C91E21D0891E00F09684C91E00F09384E6
:1003A00000F04CBD25238DF87C30012109912AE015
:1003B0006C208DF84A00D9F8000050F8042BC9F8D9
:1003C0000000002A43D11499487800283DD04FF00E
:1003D000FF340FF6902012E09DF84A006C28EAD016
:1003E000D9F8000050F8044BC9F800000794D4B9BC
:1003F0001499487898B14FF0FF340FF6842000F03C
:10040000A1FF201A07D132981FAA04A900F065FDA8
:1004100000287FF5E1AE4FF0FF3000F05BBD0FF636
:100420007C200790EFE7109D002D04D5204600F0BA
:10043000A9FF044607E02A46204600F0BFFF002837
:1004400014BF041B2C460A94DDE70FF654223298A1
:1004500004A900F0C8FD0028D5D5DCE7D9F80010C4
:1004600051F8040BC9F8001020F00004002121F01D
:10047000FF351FABCDE904450793DDE90423089957
:100480003C2413B90AB9109898B102F00F05303521
:10049000641EEEB23A2EA8BF2735120942EA037253
:1004A0001B090D5508BF002A03D007980D19A84253
:1004B000EBD308190790C4F13C0210980A928242CB
:1004C00009DABDF84810821A4FF6EF7001400C921D
:1004D000ADF8481097E7002895D59DF8480000F042
:1004E000140010288FD1119B09990C985B1A1B1AC4
:1004F0009A1A002A87DD0C9285E71499487820B172
:100500004FF0FF340FF69C1079E79DF84A006228FF
:1005100062D0682819D06A2840D06C2806D071288B
:100520004DD074282DD07A281ED064E0D9F8001060
:1005300051F8040BC9F8001020B94FF0FF340FF642
:100540007C105CE70F9901605DE7D9F8001051F865
:10055000040BC9F8001020B94FF0FF340FF65C10FF
:100560004DE70F9901804EE7D9F8001051F8040BC0
:10057000C9F800100028E5D14FF0FF340FF63C1009
:100580003DE7D9F8001051F8040BC9F80010002815
:10059000D8D14FF0FF340FF6241030E7D9F800100F
:1005A00051F8040BC9F8001020B94FF0FF340FF6D2
:1005B0000C1024E70F9AD317C0E9002323E7D9F8DA
:1005C000001051F8040BC9F800100028F2D14FF0C8
:1005D000FF340FF6E80012E7D9F8001051F8040BC9
:1005E000C9F8001020B94FF0FF340FF6D00006E72D
:1005F0000F99017007E7D9F8001051F8040BC9F8FA
:10060000001000289ED14FF0FF340FF6B000F6E640
:10061000D9F80020D21D22F00702C9F80020D2E943
:1006200000010832C9F80020CDE90401C80F02D04A
:1006300009982D210AE0BDF84800810702D50998E4
:100640002B2103E0C00705D5099820211FAA1154CA
:10065000401C0990DDE9042309991FA8CDE92E2348
:1006600008444BF020016129079015AC0BD010997C
:10067000002902D50621109105E001BF4BF02001B1
:10068000672901221092DDE9042359004915491C0C
:1006900010D11A030ED0ABF1610503211A2D0A9176
:1006A00002D20FF6A43101E00FF6A031032200F0D0
:1006B000B1FEA8E659004915491C0AD11A0308D110
:1006C000ABF1610503211A2D0A9116D30FF684317F
:1006D000ECE7DDE90401CDE93001DDE9302323F069
:1006E0000047B7F5801F22F000060DD20022002F30
:1006F00008BF002E029203D116E00FF65431D5E761
:1007000002AA00F093FE0FE0DFF8EC0ADFF8EC1A23
:1007100000EB17500290DDE930234FF0FF30194015
:10072000DFF8DC7A10403943CDE904014BF02000BA
:1007300061280DD1079830210170821CBBF1610F37
:1007400007920CBF7821582141700998801C0990AC
:10075000DDE9040120F0000231F0004308BF002A67
:1007600002D10026002571E14BF02008B8F1610F9D
:1007700040F0BE801098002847BF21210391401C03
:100780000390039FDDE92E017F1C00220023DDE999
:10079000044500F083FE02998DF8542038BF85F09F
:1007A0000045091F002F02910DF155065DDDDFF8B0
:1007B000541ACDE9302140F2FF732E93204629468A
:1007C0000022002300F082FE4FD24800400D00F1CD
:1007D0001C0215D0002A13DD2E9B9A420ADBDDE9AC
:1007E000300121F0004205F000400243DDE9300114
:1007F000114611E06FF31E5141EA025120460BE011
:1008000024F0000035F0004108BF00280FBF294642
:100810001C22294600F072FE04460D4600F00CFF33
:10082000FF1F002F804609DD00F024FF02460B4623
:100830002046294600F030FF04460D46F01D0721F2
:10084000B8F1000F0CDD491E5EBF08F00F0200F882
:10085000012D4FEA2818F3D502E0002200F8012DFF
:10086000491EFAD5C61D002FA8DC0DF15500361A19
:1008700003988642D8BF304600280DF1550430D485
:10088000B04206DA0DF155010A5C082AA8BF0F2113
:1008900000DA0021024615AB134400E0401E13F8B5
:1008A0000159521E8D42F9D00F2904D10DF1550185
:1008B0008B5C5B1C8B54002A04D50299091D15AC76
:1008C000401C0291411E0CD46218ABF13A06137819
:1008D0003033DDB23A2DA8BFF318491E02F80139B2
:1008E000F5D51099002940F1AF80421E1092ABE07F
:1008F0000299DFF8142947F29750414391FBF2F235
:10090000DDE92E45029225F00045D2F1070204DD13
:100910002046294600F04CFC0BE052420020DFF854
:10092000EC1800F045FC02460B462046294600F034
:1009300025FF0446B8F1660F109806BF029F0A37DC
:1009400006273F18142FC8BF142730208DF85400F5
:100950000D460020DFF8B818CDE92E010DF155063F
:10096000002F33DD2046294601F02CF801460A46C7
:1009700006F1080304200A26B2FBF6F606EB860E03
:10098000A2EB4E02303203F8012C0A22B6FBF2F23F
:1009900002EB820EA6EB4E063036401E03F8026DC7
:1009A000E9D1083F002F03F10806D9DD084601F020
:1009B0001DF802460B462046294600F06DFEDDE993
:1009C0002E2301F021F804460D46CBE70DF155002A
:1009D000361A0DF1550404E00298401E761E02906E
:1009E000641C20783028F7D0B8F1660F02D1029944
:1009F000491C04E0B8F1650F0CBF012100211098DB
:100A000008188642B8BF701E00281DD4B04204DA10
:100A1000215C3429C8BF392100DC30210246631E25
:100A20009D1800E0401E15F80169521E8E42F9D053
:100A3000392902D1A15C491CA154002A04D502998C
:100A4000491C1C46401C02910646029D00F05AFCBF
:100A5000406A0778DDF8408030B2002802DC0126C9
:100A60000FF2F4744BF02000662808BF6D1C16D0FE
:100A7000672846D128B210F1040F48DB404546DA1A
:100A80009DF848006D1C010703D430B24045B8BF43
:100A9000804628B2B8EB000848BF4FF000080FFAB4
:100AA00085FB07980A99BBF1000F00F3B2804A1C3E
:100AB0000A9230234354B8F1000F03DC9DF848003C
:100AC000010704D50A98411C0A9107990F5418EBA5
:100AD0000B0FB8BFC8F100052DB268420D90A844B5
:100AE00032B29045B8BF4646079B0A9836B20B967D
:100AF00032462146184400F08DFCA8EB06000E900B
:100B0000CBE0BBF1610F17D14FF0700B19E030B2A1
:100B1000404504DA9DF848100A0758BF8046B8F1EE
:100B2000010848BF4FF00008BBF1670F14BF4FF03A
:100B3000450B4FF0650B04E0BBF1410F08BF4FF0D0
:100B4000500B0A98411C0A91B8F1000F079914F84C
:100B5000012B0A5403DC9DF8480001071AD50A98B6
:100B6000411C0A91B8F1000F07990F5412DD761E4F
:100B700030B2804507980A9BB8BF464632B221463C
:100B8000184400F047FC0A9936B271180A91A8EB94
:100B900006000D9007980A9908442AB2002A80F8A6
:100BA00000B003D42B224270811C04E02D2141703F
:100BB0001546811C6D4200202EAA0A2409E02B460E
:100BC00093FBF4F505EB8506A3EB460302F8013B26
:100BD000401C2DB2002DF2DC012806DC4BF0200277
:100BE000652A04BF302201F8012B00282EAA08D163
:100BF000302001F8010B06E0401E135C303301F891
:100C0000013B0028F8DC079A0A981044091A0B9156
:100C100043E0084431B22AB2914219DA32B2214695
:100C200000F0F8FB0A9936B27118ABEB0606B8F182
:100C3000000F0A910D9603DC9DF84800020704D5C9
:100C4000079847540B99491C0B91CDF8388024E044
:100C5000214600F0DFFB0A98761B5844B8F1000FDC
:100C60000A9003DC9DF848100A0703D5411C0A913D
:100C700007990F5430B2804507980A9BB8BF464683
:100C800032B204EB0B01184400F0C4FB0A9836B2F0
:100C900030180A90A8EB06000D909DF8480000F06F
:100CA000140010287FF4AFAB099A0A990D988A189E
:100CB0000B9982180E988A18821811988242BFF6F2
:100CC000A2AB821A17E49DF84A00622808D068286F
:100CD0000ED06A2814D06C281FD0712810D01CE0C8
:100CE000D9F8001051F8040BC9F80010C0B21AE08E
:100CF000D9F8001051F8040BC9F8001080B212E0C6
:100D0000D9F80020D21D22F00702C9F80020D2E94C
:100D100000010832C9F8002006E0D9F8001051F8A7
:100D2000040BC9F800100021CDE904019DF848002A
:100D300001075AD5DDE90423002B08BF002A54D04F
:100D40004BF02000782850D109981FA930220A546E
:100D5000401C431C099301F800B046E09DF84A008E
:100D6000622808D068280ED06A2814D06C281FD0BA
:100D7000712810D01CE0D9F8001051F8040BC9F804
:100D8000001040B21AE0D9F8001051F8040BC9F86D
:100D9000001000B212E0D9F80020D21D22F00702A4
:100DA000C9F80020D2E900010832C9F8002006E0A5
:100DB000D9F8001051F8040BC9F80010C117CDE99B
:100DC0000401002902D509982D210AE0BDF8480048
:100DD000810702D509982B2103E0C00705D50998A2
:100DE00020211FAA1154401C09901FA809990144F1
:100DF000079104A8594600F056F9FFF704BB9DF887
:100E00004A006C280BD001210991D9F8000050F854
:100E1000041BC9F800008DF87C10FFF7F4BAD9F86C
:100E2000000050F8041BC9F8000015914FF0FF3284
:100E300010920021169115AAFFF709BB2521012266
:100E4000BBF1000F8DF87C1009923FF4DCAA8DF8FD
:100E50007DB00221FFF7AABACBCCCC0C686A6C74C7
:100E60007A4C00007072696E74665F733A2062613A
:100E70006420256C7320617267756D656E74000067
:100E80007072696E74665F733A20626164202573C4
:100E900020617267756D656E7400000000000000CF
:100EA000000000007072696E74665F733A20256EF0
:100EB00020646973616C6C6F776564007072696E31
:100EC00074663A2062616420256E20617267756DD8
:100ED000656E740033B0BDE8F08F2DE9FC410F461C
:100EE000064690467A6B7869396ABC6A121AB86904
:100EF000521A796A121AF869521A121A97F83800B7
:100F0000141B41070FD42020002C8DF800000ADDAF
:100F1000254601236A463946304600F07DF900280F
:100F20005DD16D1EF5D17B6942463946304600F0F1
:100F300073F9002853D130208DF800003D6A002D50
:100F400009DD01236A463946304600F065F900287C
:100F500045D16D1EF5D1BB69FA683946304600F0BF
:100F60005BF900283BD130208DF800007D6A002D10
:100F700008DD01236A463946304600F04DF970BB62
:100F80006D1EF6D1F868B969FB69421839463046DA
:100F900000F042F918BB30208DF80000BD6A002D2A
:100FA00008DD01236A463946304600F035F9B0B90C
:100FB0006D1EF6D197F8380041070DD52020002C82
:100FC0008DF8000008DD01236A463946304600F0FE
:100FD00023F920B9641EF6D10020BDE8F6814FF058
:100FE000FF30BDE8F6812DE9F8470D46A3B02F6B21
:100FF000002F8246904648BF6FF0004700F0D5FDB5
:10100000696B401801AA0021C2E90011812828BF9C
:101010004FF0FF3044D289461EE0A74230DB6869BA
:10102000201881280BD30021696303AA2946504662
:10103000FFF753FF5FEA000922D40020686103AB89
:101040006E6922466946981900F0E4F9A6196E61A6
:1010500058F8040BA0B13F1B002F11DDD8F8001089
:1010600001AA684600F04CF90446002C05D4D8F8D3
:1010700000000028D1D1641ECFD54FF0FF390EE01B
:10108000B9F1000F504604D103AA2946FFF725FF06
:101090008146B9F1000F02D10020686168634846BB
:1010A00024B0BDE8F0872DE9FC4307466F293E696F
:1010B00008BF082405D041F02000782814BF0A2476
:1010C00010243C25D7E90023642918BF69299046DC
:1010D000994605D1002B03D5D8F1000869EB4909E1
:1010E000B9F1000F08BFB8F1000F0CD1386B50B93F
:1010F000082C39D197F83800010735D530203B2529
:1011000086F83B0030E08DF8001040464946224604
:10111000E31700F04FFD3032D0B26D1E3A28019532
:1011200004DB9DF80000A0F151018A187255404679
:1011300049462246E31700F03DFD80465FEA01097B
:1011400008BFB8F1000F03D0F86871198842DCD3EA
:10115000082C09D197F83800010705D5705D3028B3
:1011600002D06D1E30207055C5F13C02BA61711974
:10117000F960386B824208DA821A3A624FF6EF70F1
:10118000398F01403987BDE8F38300280ED597F8E1
:10119000380000F01400102808D17B6B7969386A98
:1011A0005B1A1B1A9A1A002AC8BF3A62BDE8F38379
:1011B0002DE9D04306460F4614464FF00008DFF8ED
:1011C000549012E0E00707D542464B463046394678
:1011D00000F01AFC06460F464046494642464B463A
:1011E00000F012FC641080468946002CEAD130469B
:1011F0003946BDE8D083000002FCFFFFFFFF0F80EF
:101200000000E03F0000F07FA08601000000F03FFA
:1012100084D7974100002440F8B505460E4617468E
:101220001C4600205CB117F8011BB068A847B060ED
:1012300030B1F06A401CF0620020641EF3D1F2BDB0
:101240004FF0FF30F2BD00006E616E004E414E0067
:10125000696E6600494E4600300030B4002513E048
:1012600050F8042BD30744BFA9F101039A18091FB2
:10127000042942F8045BFAD213468C0744BF158058
:101280009B1CC90748BF1D7050F8041B0029E7D1FB
:1012900030BC70471C48704770B45368D41801E0E4
:1012A0005B1C491E042B08DA00291FBF057804F8CF
:1012B000015B10F8016B002EF2D1536070BC7047D7
:1012C00038B514461D4661B1FFF7E6FF61686A6BE9
:1012D000204690476FF00102811A02D0491E01D0CA
:1012E00001E003E005E00021616032BD6FF0010024
:1012F00032BD4FF0FF3032BDDA6B1047024BDFE7F3
:10130000014BF9E701487047480000201000002019
:10131000C9B202788A421AB11CBF10F8012FF9E74E
:1013200018BF00207047B1F5807F02D34FF0FF3027
:1013300070470170012070470078401E8041C04313
:10134000C00F704780B500B906A005490B681BB1F6
:1013500022220021984701E000F044FD222002BD36
:101360006C080020636F6E73747261696E7420681C
:10137000616E646C65723A20626164206D6573739E
:101380006167650000F10103810704D010F8011BBB
:10139000820781B1FAD10268A2F10131914311F0C3
:1013A000803104BF50F8042FF6E709BAB1FA81F191
:1013B00000EBD100401CC01A70472E00C9B2830751
:1013C00006D0521E22D310F8013B9942F7D11FE0FC
:1013D000083A13D302F1040241EA012141EA014132
:1013E00050F8043B121F21BF4B40A3F1013C2CEAF3
:1013F000030C1CF0803FF3D0C9B2001F083210F874
:10140000013B521E28BF91EA030FF8D818BF0120F4
:10141000401E70474AB1000011F8013B521E00F80F
:10142000013B1CBF11F8013BF8E7704710B51446AB
:1014300000F002F8226010BDC1F30A5343B14A0024
:1014400012F5001F28D2A3F2FE32A1EB0251704721
:1014500050EA410C20D001F0004C31EA0C01B1FA05
:1014600081F204BFB0FA80F3D2180B3AB2F1200334
:101470002CBF00FA03F1914041EA0C013EBFC2F1DA
:10148000200C20FA0CF319439040524240F2FD33F5
:10149000D21A01EB03517047002270474FF4001C31
:1014A0001CEB410F94BF1CEB430F09E041EA030C16
:1014B00050EA4C0C52EA0C0C03D2994208BF9042FD
:1014C000704714BF8B428242704743004FF4001CA8
:1014D0001CEB410F94BF1CEB430F09E041EA030CE6
:1014E00050EA4C0C52EA0C0C03D28B4208BF8242E9
:1014F000704714BF9942904270470000124254D482
:1015000040F2FF7C1CEA11530FD0634531D09B1889
:1015100063453CBF01EB0251704701F0004141EAD5
:101520000C510020AFF30080704750EA410320D0F7
:1015300001F0004C91EA0C011CD0B1FA81F30B3B95
:101540009A420DD9D21A994051EA0C01C3F1200CEC
:1015500020FA0CFC61449840531C40F2FF7CD7E712
:10156000914041EA0C01C2F1200C20FA0CF319431E
:1015700090407047B0FA80F31533202BE0D3202A37
:10158000EED3203A203B9A4209D9D21A00FA03F14D
:1015900041EA0C010020531C40F2FF7CB8E700FA3E
:1015A00002F141EA0C0100207047524240F2FF7CF8
:1015B0001CEA11530DD06345DBD0B2EB030C3CBFEA
:1015C000A1EB025170470CF1010221EA035141F4F1
:1015D000801150EA410CCCD001F0004C352A27DCB8
:1015E00030B481EA0C01B2F1200309DAC2F1200320
:1015F000044601FA03F5D0402843D1409C400CE05A
:10160000C3F12002450020FA03F418BF44F001049E
:1016100021FA03F091400C43002174F1004550F190
:10162000000051EB0C01244230BC7FF47BAF7047CB
:101630006146002076E70000C1F30A5340F2FE3213
:101640009B1A14DDD3F120034FEAE17208DDC902D1
:1016500041EA505141F00040D84080185040704756
:1016600003F2E13010B1D24382F000407047002015
:1016700070470000C11768B14840401AB0FA80F2C4
:101680009040D21CC907C2F5846241EA025202EBC3
:10169000D02140057047000070B44FF0004591EA3A
:1016A000030F40F1A3836B40841A71EB030603D24E
:1016B000001BB141121973414FF4001C1CEB410F88
:1016C00034BF7CEB430442E00C0DA4EB1356352EE3
:1016D0004FDC45EAC323DB0A45EAC121C912B6F152
:1016E00020050DDD63FA05F6EB4086EA030512429C
:1016F00018BF45F00105C01851F100010CD213E0EC
:1017000062FA06F5F2405540F3415A40B340F340C7
:101710005A408018594107D349085FEA30005FEA10
:10172000350528BF45F0010501F58011420875F126
:10173000004250F1000041EB04514E0016F5001F2D
:1017400070BC38BF70470020090D090570471CEBBD
:10175000410F10D252EA43060BD0BCEB410F05D823
:101760000C0DAB43661E342EB6DD02E0AB43801891
:10177000594170BC704770BC70470000F0B540F232
:10178000FF7581EA030C0CF0004C15EA11541DBFE3
:1017900015EA1357AC42AF42E5E0BC41C1F3130177
:1017A000C3F31303801A994143F4801304D2641ED7
:1017B0004000494180185941C90241EA5051B1FBEA
:1017C000F3F603FB1611A2FB0675D7EBC020A94167
:1017D00002D2761E80185941C90241EA5051B1FB2C
:1017E000F3FE03FB1E11A2FB0E75D7EBC020A9412F
:1017F00003D2AEF1010E80185941890241EA90519D
:10180000760546EA8E2EB1FBF3F603FB1611A2FB1A
:101810000675D7EB8020A94102D2761E8018594167
:10182000C90241EA50514EEA060EB1FBF3F603FB42
:101830001611A2FB0675D7EBC020A94102D2761E75
:1018400080185941C90241EA5051B1FBF3F703FB3B
:101850001711A2FB0735D3EBC020A94167F10007A0
:101860000CBF004247F0010766F3D5274FEA1E314F
:10187000B80814F5806412DDBD0775F1004250EB25
:101880000E5051EB045111F5801F5CBF41EA0C0171
:10189000F0BD4CF07F6141F0E0410020F0BDBD079C
:1018A0006D0840EA0E5041F48011D4F10104B4F106
:1018B00020060ADAC4F120060200E04001FA06F32D
:1018C000E1401843B24015430EE0342C13DCC6F15E
:1018D000200445EA40056D0820FA06F2154321FA76
:1018E00006F0A1400D43002175F1004250F10000C7
:1018F00051EB0C01F0BD00205FEA0C01F0BDCFB947
:1019000092185B41B3FA83F704BFB2FA82F6BF19AB
:101910000B3FB7F120062FBF02FA06F3BB40C7F119
:10192000200622FA06F638BF3343BA401CB1E41948
:10193000641E33E77F4231F00041B1FA81F404BF05
:10194000B0FA80F6A4190B3CB4F120062FBF00FAC0
:1019500006F1A140C4F1200620FA06F638BF314353
:10196000A0403C1B1AE7AC421ABF05EA1357AF422E
:1019700012E050EA41061CBF52EA4306BFE750EAB4
:101980004107304661461CBF41EA0551F0BD52EAAD
:10199000430C08BFC143F0BD00204FF4001616EB06
:1019A000410F98BF16EB430F08BF16EB410F24BF42
:1019B000C14305E016EB430F0CBF61464CEA0551ED
:1019C000F0BD0000400D491840EA81200CD2490DBD
:1019D000A1F58061491C40F0004005DBD1F11F01F9
:1019E00054BFC840C017704700207047014648B137
:1019F000B0FA80F18840C91CC1F58461090501EB8A
:101A0000D021400570470000B0B581EA030C0CF00E
:101A1000004C40F2FF7515EA11541DBF15EA13572B
:101A2000AC42AF4239E0E41923EA455343F4801352
:101A3000C90241F0004141EA505EC7021100A7FB14
:101A4000020200284FF00000EEFB01204FF00001E1
:101A5000E3FB072118BF42F0010240180021494171
:101A6000E3FB0E01A4F580640F0302D25200404153
:101A7000494154F101046CDD470872F1004250F114
:101A8000000051EB0451A1F580115CBF41EA0C014B
:101A9000B0BD4CEA05510020B0BD05EA1357AC4279
:101AA00014BFAF4241E050EA410E1CBF52EA430E60
:101AB00002E061460020B0BD24423C441BD15FEAF5
:101AC000070EF6D0090302BF01460020AEF1140E46
:101AD000B1FA81F7AEEB070401FA07FE0C37C7F144
:101AE000200100FA07F7C8404EEA000E23EA4553EA
:101AF00043F48013A2E733F00043B3FA83F704BF43
:101B0000B2FA82FE77440B3FE41BB7F1200E2FBFE1
:101B100002FA0EF3BB40C7F1200E22FA0EFE38BFC8
:101B200043EA0E03BA40641C82E750EA410E14BF38
:101B300052EA430E6FF000014FF4001717EB430F0A
:101B40008ABF194617EB410FB5E74CEA0551002053
:101B5000B0BDD4F10104B4F120070FDAC4F12007BD
:101B6000520828BF42F0010210FA07F501FA07F700
:101B7000E1BF2A43E0403843E1400FE0352C98DCD8
:101B8000C7F1200452EA400220FA07F218BF42F0DF
:101B9000010231FA07F0A1400A43002172F100422C
:101BA00050F1000051EB0C01B0BD80B5FFF772FBA6
:101BB000006C02BDBBBBE1B1B2F5803F80F07E801E
:101BC000022A1ED98C46B1FBF2F102FB11C31B04A1
:101BD00043EA1043B3FBF2FC02FB1C3380B240EA41
:101BE0000343B3FBF2F002FB103240EA0C40002347
:101BF0007047022A05D98446B0FBF2F002FB10C2FE
:101C000070474AB105D100F0010249085FEA30008F
:101C1000704700220023704700F09EB90B000200BD
:101C2000002100207047904271EB030CF6D3B3F50E
:101C3000803F2FD2F0B5B3FA83F7B1FA81F4A7F160
:101C40000F0E3D1B5340CEF1200602FA0EF2F34177
:101C50005340B5F10F0746D80F3C2C444140C4F126
:101C60002006A040F1414140B1FBF3F603FB161101
:101C7000A2FB0645001BA94102D2761E80185941DD
:101C800080EA010221FA0EF362FA0EF200215A40B4
:101C90003046F0BD30B4B1FBF3FC03FB1C11A2FBDA
:101CA0000C45001BA94103D2ACF1010C801859412D
:101CB00030BC02460B46604600217047B2F1807F7F
:101CC00065D3F0B5B2FA82F7B1FA81F4C7F10F0625
:101CD0003D1B22FA06F307F1110EF24120355A405E
:101CE000B5F10F07B8D94140C4F12006A040F14139
:101CF0004140B1FBF3FC03FB1C11A2FB0C45001B94
:101D0000A94103D2BCF1010C801859410F2F12D305
:101D10000F3FC90341EA5041B1FBF3F603FB161133
:101D2000A2FB0645D4EBC030A94102D2761E801832
:101D3000594146EACC3C07B34140C7F12006B840C0
:101D4000F1414140B1FBF3F603FB1611A2FB06453E
:101D5000001BA94102D2761E8018594180EA010277
:101D600021FA0EF3C7F1200462FA0EF20CFA07F022
:101D70005A402CFA04F13043F0BD80EA010221FA06
:101D80000EF3002162FA0EF260465A40F0BD8C4616
:101D9000B1FBF2F102FB11C31B0243EA1063B3FB78
:101DA000F2FC02FB1C331B024CEA002043EA1063E6
:101DB000B3FBF2FC02FB1C331B024CEA002043EA9B
:101DC0001063B3FBF2FC02FB1C331B024CEA002045
:101DD00043EA1063B3FBF2FC02FB1C324CEA002026
:101DE00000237047012000F0B9B80000841A71EB9D
:101DF000030604D26E40001BB141121973414FF427
:101E0000001C1CEB410F34BF7CEB430683E00C0D40
:101E1000A4EB1356362E00F37C80012E45EAC32333
:101E200041DC43EA525312BFD20292025B082405FE
:101E300045EAC12141EA5051D2EBC020994125D455
:101E400007D1B0FA80F610FA06F162D000202036F1
:101E500008E0B1FA81F6B140C6F1200220FA02F2A0
:101E60001143B0404FEAF474B4EB465434F0010629
:101E70004FEA74040AD8D6F50016760D04F0004433
:101E8000F04061FA06F25040F1404840C00A40EA92
:101E9000415021F0004128BF5FEA500550F1000099
:101EA00044EBD12135E0DB0A45EAC121C90AB6F18C
:101EB00020050EDD42EA0242120CC5F1200603FAAB
:101EC00006F6EB4042EA06056D42984161F10001D9
:101ED0000DE062FA06F5F240554063FA06FC82EA2C
:101EE0000C02F3405A406D42904161EB030111F442
:101EF000801F05D1641E620502D06D00404149413A
:101F000021F48011430875F1004350F1000041EBCA
:101F1000045170BC70471CEB410F15D223F00043F5
:101F200052EA43060BD04FEA4C0CBCEB410F04D8ED
:101F30000C0D661E342EB7DDEBE7801A994150EA8E
:101F4000410608BF0021E4E708BF1CEB430F28BF90
:101F50006FF00001DDE700007047000080B5AFF3CF
:101F60000080024A11001820ABBEFBE726000200E9
:101F700038B5040001D1012032BD00F041F818B994
:101F800000F03AF800F0DCFC1FE00168C86840F09F
:101F90000100C8608A68DFF870000240062A18BF96
:101FA000B2F5803F03D0086840F0010008600020CF
:101FB000704738B5040001D1012032BD00F020F88F
:101FC00018B900F019F800F07FFD02206870211D9B
:101FD000206800F0FEF901206870002032BD38B59D
:101FE000040001D1012032BD00F00AF818B900F058
:101FF00003F800F007FDE8E700212970204670474C
:1020000004F13C05687870470700010010B50446EC
:10201000206801698A0715D5C1688A0712D56FF053
:102020000201016101222277806910F0030F20462E
:1020300002D000F04AFD03E000F048FD00F094F803
:1020400000202077206801694A0715D5C1684A0732
:1020500012D56FF00401016102222277806910F429
:10206000407F204602D000F030FD03E000F02EFD5E
:1020700000F07AF800202077206801690A0715D55A
:10208000C1680A0712D56FF00801016104222277A6
:10209000C06910F0030F204602D000F016FD03E0E7
:1020A00000F014FD00F060F800202077206801693E
:1020B000CA0615D5C168CA0612D56FF010010161B4
:1020C00008222277C06910F4407F204602D000F039
:1020D000FCFC03E000F0FAFC00F046F8002020775A
:1020E00020680169CA0708D5C168CA0705D56FF01D
:1020F00001010161204600F0BFFC206801690A0669
:1021000008D5C1680A0605D56FF080010161204637
:1021100000F0DDFC20680169CA0508D5C1680A061F
:1021200005D56FF480710161204600F0D1FC206874
:1021300001694A0608D5C1684A0605D56FF0400115
:102140000161204600F0C5FC206801698A060AD5B5
:10215000C1688A0607D56FF0200101612046BDE8FD
:10216000104000F0B7BC10BD204600F0B4BC38B53C
:1021700000F13C042378012B01D1022032BD012360
:102180002370022565706AB1042A0FD0082A11D085
:102190000C2A13D0102A15D0142A04BF006800F0AE
:1021A00042FA12E0006800F057F90EE0006800F013
:1021B0008AF90AE0006800F0B8F906E0006800F06B
:1021C000E5F902E0006800F006FA00F0FCB870B52E
:1021D00000F090F801D1022070BD00F098F852B1E3
:1021E000042A1BD0082A2CD00C2A3DD0102A4ED00D
:1021F000142A60D073E03068294600F02DF9306869
:10220000816941F0080100F071F821F00401816159
:1022100031688A69286902438A6160E0306829462A
:1022200000F051F93068816941F4006100F05EF816
:1022300021F4806100F05AF82A6941EA02218161A3
:102240004DE03068294600F070F93068C16941F00E
:10225000080100F047F821F00401C1613168CA6942
:1022600028690243CA613AE03068294600F08EF9D5
:102270003068C16941F4006100F034F821F48061F4
:1022800000F030F82A6941EA0221C16127E0306894
:10229000294600F0A0F93068416D41F00801416520
:1022A0003068416D21F00401416531684A6D28694B
:1022B00002434A6513E03068294600F0B4F93068FB
:1022C000416D41F4006141653068416D21F48061E8
:1022D00041653068416D2A6941EA0221416500F09B
:1022E00010F870BDC1613068C169704781613068A4
:1022F00081697047064606F13C040D4620780128A6
:10230000704701206070002121700020704701207B
:10231000207002216170704738B500F04EF801D18D
:10232000022032BD0120207002226270DFF85003CB
:102330002A689368034093600868020018BF102859
:102340002DD0202818BF302829D0402823D050284D
:1023500016D0602818D0702803D0B0F5005F07D0E1
:1023600021E000F025F82868816841F0770105E058
:1023700000F01EF82868816841F48041816012E015
:1023800000F012F850210BE0CA684968286800F094
:102390009CF9602104E000F007F8402100E00146CC
:1023A000286800F0A4F90EE0CA68496828687DE151
:1023B000CB684A6889682868A1E1054605F13C04B4
:1023C00020780128704701206070002121700020D2
:1023D00032BDF0B5DFF8ACE20368DFF8AC42DFF8FD
:1023E000AC52DFF8AC62DFF8AC72DFF8ACC270451B
:1023F00018BFB0F1804F03D0604518BFB84209D173
:102400004A6823F07003134370451CBFB0F1804F3E
:10241000604507D0B84218BFB04203D0A84218BFE9
:10242000A04203D1CA6823F4407313434A6923F0DE
:1024300080031343036070458B68C36218BFB042CA
:102440000A68826203D0A84218BFA04201D109697C
:10245000016301224261F0BDF0B5026ADFF824E2B7
:10246000DFF82CC2894F520852000262066A4468A3
:1024700085698A4A0B6826F0020615408A68164369
:102480001D43704518BF60457F4B03D0B84218BF4D
:1024900098420AD1CA6826F00806164370451CBF48
:1024A0006045B84226F0040601D0984205D14B6938
:1024B0008A6924F440741C4314434460856149686C
:1024C00041630662F0BD70B5026A22F0100202623A
:1024D000046A45688369724A0E68134043EA06231A
:1024E0008A68684E24F02004B04244EA021407D1FE
:1024F000CA6824F0800444EA021424F0400407E08F
:10250000634A90421FBF614EB0425F4A904206D17B
:102510004E698A6925F44065164345EA860545609B
:10252000836149688163046270BD70B5026A5B4B68
:1025300022F480720262056A4668C4690A681C4017
:1025400014438B684F4A25F40075904245EA0325F1
:1025500007D1CA6825F4006545EA022525F480659F
:1025600007E04B4A90421FBF484B9842464A904270
:1025700006D14B698A6926F44056134346EA03168E
:102580004660C4614968C163056270BD70B5026A86
:1025900022F480520262056A4368C469404A00F02E
:1025A00067F825F4005545EA0235B0421CBF384AA9
:1025B000904205D0354EB0421CBF334A904204D100
:1025C0004A6923F4804343EA82134360C461496843
:1025D0000164056270BD70B5026A324B22F480322C
:1025E0000262066A4468456D0A681D4015438B689F
:1025F000244A26F4003646EA034690421CBF244B88
:10260000984205D0214A90421CBF1F4B984204D1EA
:102610004A6924F4803444EA0224446045654968E8
:102620008165066270BD70B5026A22F48012026292
:10263000056A4368446D1C4A00F01AF825F4001539
:1026400045EA0255B0421CBF114A904205D00F4ED8
:10265000B0421CBF0C4A904204D14A6923F4802343
:1026600043EA8223436044654968C165056270BDE1
:102670000E68144044EA06248A68024E704700003F
:102680008800FEFF002C014000480140004401404A
:102690000040014000080040000400408CFFFEFFA5
:1026A000FF8CFFFE8FFFFEFFFF8FFFFE10B5036A5A
:1026B000046A64086400046223F00A03846924F055
:1026C000F00444EA0214846123E010B5036A23F0A5
:1026D000100303628369046A23F4704343EA0233FC
:1026E00024F0A004836144EA0114046210BD8268EE
:1026F00022F07002114341F007018160704710B56C
:10270000846824F47F442143114341EA032181601A
:1027100010BD1943016210BD18B587B000F01AF85A
:1027200000F05DF8DFF86043DFF86003206000210F
:10273000482000F0FCF808B100F04EFA00F0A1F8D3
:1027400008B100F049FA002000900190029069461B
:1027500020468FE01022002103A800F03EBA10B5F9
:102760008AB000F03CF81C22FFF7F5FFDFF82043A9
:10277000DFF8200300F04CF82161A1612046FFF74B
:102780002EFC08B100F028FA00F04AF808B100F079
:1027900023FA60210391002204920592079200F02F
:1027A0001AF808B100F018FA042200F014F808B181
:1027B00000F012FA082200F00EF808B100F00CFA4E
:1027C0000C2200F008F808B100F006FA204600F0EC
:1027D0002AF90AB010BD03A92046FFF7F8BC0C2265
:1027E0000021684600F0F9B91FB5FFF7F8FFAA4CC1
:1027F000AA4800F00DF8A1612046FFF7B9FB08B127
:1028000000F0EAF900F00CF808B100F0E5F91FBD9E
:10281000206000214FF6FF70E0606160A1607047AA
:102820000021009102912046694600F0E1B918B5F7
:1028300087B0FFF78FFFFFF7D2FF994C99482060D0
:1028400000216160A160216161614FF6FF70E0606D
:102850008021A1612046FFF78BFB08B100F0BCF995
:1028600000F00FF808B100F0B7F9002100910291D3
:102870002046694600F0BCF908B100F0ADF908B097
:1028800010BD4FF48050039003A92046FFF744BDCC
:1028900010B592B000F046F82C22FFF7A1FF824C51
:1028A0008248206000214FF6FF700CE010B592B016
:1028B00000F038F82C22FFF793FF7D4C7D48206014
:1028C000002140F2F22000F032F808B100F084F963
:1028D0002046FFF76EFB08B100F07EF900200B9058
:1028E0000C9000220E9010900D920F9211920BA955
:1028F0002046FFF73CFC08B100F06EF90021009182
:1029000001910291039104914FF4005206910A91B2
:1029100005926946204600F09FF908B100F05CF985
:1029200012B010BD1C2200210BA800F056B9E060C7
:102930006160A16021616161A1612046FFF718BB60
:1029400010B586B000F088F82168504A5A48914284
:1029500017D1416841F400614160416801F40061B0
:1029600000910099026842F400220260012100688F
:1029700000F40020009002220098504800F072F805
:1029800036E0464A914207D1816841F010018160EA
:10299000806800F010001CE0424A91420FD141686B
:1029A00041F4803141600022406800F480300090A2
:1029B00000210098182000F0B1F918201EE03B4AD1
:1029C000914209D1416841F400314160406800F40E
:1029D00000300090009813E0364A914210D14168CF
:1029E00041F480214160406800F48020009000980C
:1029F000002200211A2000F091F91A2000F0ABF912
:102A000006B010BD81B000682249884209D12C4827
:102A1000026842F002020260006800F002000090CA
:102A2000009801B0704710B586B000F015F8216825
:102A3000184881420ED12048016841F4001101601C
:102A40003C21006800F400100090022200981D480C
:102A500000F008F806B010BD04461422002101A8B9
:102A600000F0BBB801910292002103910491022170
:102A7000059101A900F09AB900680E49884208BF83
:102A800000F084BA70470000A8060020002C014026
:102A9000E806002000040040280700200010004045
:102AA0006807002000400140A807002000440140C2
:102AB000E8070020004801401410024000080048C8
:102AC0001C10024000100048704770477047704764
:102AD00070477047704770471CB58DF8000004467A
:102AE000022301226946394800F0ACFA204616BD9F
:102AF00080B500F079FD00F022F800F087FD00F0CD
:102B0000F9FD00F00FFEFFF72AFE00F088FE00F04E
:102B100092FE00F0A8FE00F0C7FF00F075FEFFF780
:102B200063FEFFF7F9FDFFF782FEFFF7B1FEFFF747
:102B3000BDFE00F03AFF2648FFF727FAFEE780B512
:102B4000A2B014220021684600F047F84C22002170
:102B50000FA800F042F82822002105A800F03DF857
:102B60004FF4803106910C910120059008900223CA
:102B70004FF4E01100220B930D910E9205A800F086
:102B8000BFFF022101910F204FF4806100900022CD
:102B90000391029204920221684601F042F90D4924
:102BA0000F9100221192139200214FF48072129122
:102BB0001491199221911B911E911F9120911D91A9
:102BC0000FA801F0FDF923B000BD0000C4030020F0
:102BD000E80700208F10E201704710B50446104648
:102BE0000A460146204601F0E9FA204610BD0000E1
:102BF000F0B500F13C042278012A01D10220F0BD99
:102C000001222270022363700568DFF8CCC06E6871
:102C1000AF68654503D14B6826F470061E430A6809
:102C200026F0700616436E600268624518BFB2F166
:102C3000804F07D0294882421FBF294B9A4229481A
:102C4000824204D1886827F08007074397600121FA
:102C5000617000202070F0BD10B590F83C20012A72
:102C600001D1022010BD012280F83C20CC688B6885
:102C70004A6824F440741C4324F4806414430B68B1
:102C80000A6924F400641C4324F4805414434B69FF
:102C90008A6A24F400541C4324F4804414438B694E
:102CA0000D4A24F4702444EA0344036893420CD18F
:102CB0004A6A24F4700444EA0254CA69096A24F096
:102CC0008074144324F000740C435C64002280F888
:102CD0003C20002010BD0000002C014000040040FA
:102CE00000080040004001400901020002D42948C8
:102CF00081547047284B02F00F021A4402F8041C5A
:102D00007047264B19684FF6FF020002114000F48D
:102D1000E0600843224908431860704770B51F4BB4
:102D20001C68C4F302230124C3F10705052D2EBF3F
:102D30000F2504FA05F56D1E1E1D072E34BF002356
:102D4000DB1E2940994004FA03F3BDE870405B1E86
:102D50001A401143C8E7010007D4012200F01F0107
:102D6000104B8A40400943F82020704710B5401EA0
:102D7000B0F1807F01D3012010BD0B4C60600F21AA
:102D80004FF0FF30FFF7B0FF0021A1600720206067
:102D9000002010BD00E400E018ED00E00CED00E0C4
:102DA0000000FA0500E100E010E000E02DE9F84F36
:102DB00000276D4A6D4B4FF00F0805460E4634E074
:102DC0006B4CA54214BF072406248C40694944EA91
:102DD0000E0441F82C40C143146801EA040C7468E5
:102DE000E40348BF40EA0C0CC2F800C0546801EA92
:102DF000040C7468A40348BF40EA0C0CC2F804C079
:102E0000946801EA040C7468E40248BF40EA0C0CC0
:102E1000C2F808C0D46801EA040C7168890248BF8E
:102E200040EA0C0CC2F80CC07F1C316831FA07F084
:102E300000F08A800124BC4014EA0100F4D04FEA7B
:102E4000470C032101FA0CF16FEA010E71680129A8
:102E500018BF022903D0112918BF122912D1A9685D
:102E6000D6F80C900EEA010109FA0CF949EA0101C1
:102E7000A960696821EA04047168C1F30011B940CE
:102E80000C436C60E968B4680EEA010104FA0CF4C2
:102E90002143E960B9007468022C18BF122C12D1CA
:102EA000FC0805EB840401F01C09D4F820A008FA02
:102EB00009FB2AEA0B0AD6F810B00BFA09F949EA1D
:102EC0000A09C4F820902C680EEA040E347904F044
:102ED000030404FA0CF444EA0E042C607468E40061
:102EE000A2D51C6844F001041C604FEA970C1C68D2
:102EF00004F00104009401F00C01009C1D4C54F8F6
:102F00002C4008FA01FE24EA0E0EB5F1904F08BFDE
:102F1000002418D0184CA54208BF012413D0174C28
:102F2000A54208BF02240ED0154CA54208BF0324B9
:102F300009D0144CA54208BF042404D0124CA54269
:102F40007FF43EAF052440E7BDE8F18F0AB181610F
:102F5000704781627047426901EA0203914341EA86
:102F600003418161704700000004014018100240D5
:102F7000001800480800014000040048000800480C
:102F8000000C0048001000480014004838B50B4CF5
:102F90000B4D2268521C22604FF480612846FFF7D7
:102FA000DAFF2268642A07DB00202060042128461B
:102FB000BDE83440FFF7CFBF31BD000068080020F6
:102FC0000014004838B5040009D004F170056968A0
:102FD00009B900F01EF800F021F8012801D1012004
:102FE00032BD606A08B100F02AF800F00AF821F05A
:102FF0002A01FFE7816000F01BF8BDE8324000F0D5
:1030000020BA2068416821F49041416020688168BD
:10301000704700202870204600F02DBC24216960F4
:1030200020680268520852000260204600F0B0B8E2
:103030002068016841F00101016020467047204688
:1030400000F09CB92DE9FC47054605F1700488465F
:1030500060682028174699464BD1B8F1000F14BF7D
:10306000002F012046D02078012842D00121217074
:103070000020E0602122626005F1500601F0D2F8E4
:10308000378082467780A868B0F5805F04BF2869E2
:1030900000281ABF40460027474680460DE02868B2
:1030A000B8F1000F12BF18F8011B37F8021BC1F36B
:1030B000080101857088411E718053467088CDF8E3
:1030C0000090002807D000228021284600F0E6F971
:1030D0000028E4D005E000224021284600F0DEF977
:1030E00008B1032006E0202060600021217000204C
:1030F00000E00220BDE8F68738B5044604F1580523
:103100001346286A202840D151B3180028D0287EC1
:1031100001283AD001222A7661652B80002068625E
:10312000222129626869E8B10FF22D4181620FF214
:1031300061406969C86269690FF25D4008630020F7
:10314000696948632068626D00F12401686901F0D3
:1031500096F838B110206862002129762020E861B5
:10316000012032BD002028762068016841F480717A
:1031700001602068816841F00101816020688168F8
:1031800041F040018160002032BD022032BD0000CC
:1031900070B50446704823681E68A168064020691F
:1031A0000E4361690643E0690E4306431E60002238
:1031B0005968E06821F440510143596000259E6838
:1031C000A169206A26F430660E43644906438B42A7
:1031D0009E6063480AD1006800F00300032815D8F8
:1031E000DFE800F0024B5F38012010E05D498B42C0
:1031F00020D1006810F4403051D0B0F5803F3CD071
:10320000B0F5003F4DD0B0F5403F23D01020E1692C
:10321000B1F5004F4FF6F0766AD140B1012842D0A7
:10322000022843D0042846D008284DD054E000F0AE
:103230008EFE42E04C498B420ED1006810F44020D3
:103240002DD0B0F5802F18D0B0F5002F29D0B0F5D3
:10325000402FDBD10220DAE744498B420FD10068CE
:1032600010F440101BD0B0F5801F06D0B0F5001F41
:1032700017D0B0F5401FEDD0C8E70420C7E73C49A0
:103280008B42C3D1006810F4400008D0B0F5800F25
:10329000F3D0B0F5000F04D0B0F5400FEBE70020FD
:1032A000B5E70820B3E700F05AFE06E06068314950
:1032B00001EB50010CE000F033FE61684A0802EBBC
:1032C0004002B2FBF1F205E06068410801F580318F
:1032D000B1FBF0F292B200E00125A2F11000B04281
:1032E00033D21640C2F3420006432068C6602DE088
:1032F00040B1012809D002280AD004280DD008289E
:1033000013D01AE000F023FE09E000F028FE06E0EA
:103310006068194901EB50010BE000F001FE6168A3
:1033200000EB5100B0FBF1F205E06068410801F5E7
:103330000041B1FBF0F292B200E00125A2F11000D1
:10334000B04202D22168CA6000E001250020206658
:103350006066284670BD0000F369FFEF0038014049
:10336000301002400044004000480040004C004043
:10337000005000400024F40000127A0090F824105D
:10338000CA0706D502685368816A23F400330B43E9
:10339000536090F824108A0706D502685368C16A02
:1033A00023F480330B43536090F824104A0706D56A
:1033B00002685368016B23F480230B43536090F839
:1033C00024100A0706D502685368416B23F40043B2
:1033D0000B43536090F82410CA0606D50268936820
:1033E000816B23F480530B43936090F824108A067A
:1033F00006D502689368C16B23F400530B439360B6
:1034000090F824104A0610D502685368016C23F422
:1034100080130B435360036CB3F5801F05D15368D1
:10342000416C23F4C0030B43536090F824100A0648
:1034300006D501684A68806C22F4002202434A6083
:103440007047F8B5044604F170050020E8606FF09D
:103450007E4700F0E7FE0646206801680A0708D5A7
:103460000097334600224FF40011204600F016F872
:1034700060B9206801684A070AD5009733460022E0
:103480004FF48001204600F009F808B10320F2BD96
:1034900020206860A86000202870F2BD2DE9F0416E
:1034A000069C05460E4690461F462868C169314075
:1034B000B1420CBF01200020404529D114F1010F79
:1034C000F3D000F0AFFEC01B844200D35CB9286883
:1034D000016821F4D071016000F01CF80021017036
:1034E0000320BDE8F081286801684A07DDD5C1697D
:1034F0000A05DAD54FF4006101622868026822F4F7
:10350000D0720260002200F005F8C1600270E7E7A7
:103510000020E6E72868816849084900816005F1D4
:103520007000202141608160704701680A6822F0C4
:10353000C0020A6020214167704701680A6822F4CE
:1035400090720A6001688A68520852008A602021DD
:103550008167002202667047416A8069202813D083
:103560000022A1F85A200868036823F480730360DE
:10357000086882685208520082600868826822F0F7
:103580004002826020208867084600F04DBA0000A3
:10359000406A00F039BF0000F8B5446A04F17405D0
:1035A00004F1520728686E6821688A68110606D5FA
:1035B000212804D1002038802046FFF7B6FF21687B
:1035C0008868410606D5222E04D100203881204685
:1035D000FFF7B3FFA86840F01000A8602046BDE8E0
:1035E000F24000F012BF000080B50748016841F0CA
:1035F000100101600320FFF784FB002000F006FFAC
:1036000000F024FF002002BD0020024070B586B00B
:10361000142200216846FFF7E0FA2D482D4D01687D
:103620002D4C41F40011016040F20446026802F49E
:10363000001205920599026842F480020260036854
:1036400003F4800305930599026842F400220260A6
:10365000036803F4002305930599026842F40032DD
:103660000260036803F4003305930599026842F48D
:10367000802202600022006800F48020059031461C
:1036800005982846FFF762FC002207212046FFF735
:103690005DFC01210191002202920392009669468D
:1036A0002846FFF783FB072100F01AF84FF49051EA
:1036B0000091012200210291039101926946074C79
:1036C0002046FFF773FB032100F00AF806B070BD37
:1036D000141002400014004800040048000800488C
:1036E0000091012200210291039101926946204636
:1036F000FFF75CBB80B50A48016841F00201016038
:103700000022006800F002000090002100983A209A
:10371000FFF704FBBDE802403A20FFF71CBB00BFE7
:103720001410024018B589B00C22002106A8FFF73A
:1037300054FA182200216846FFF74FFA304C4FF038
:10374000A040206000210120A062E061042204F179
:1037500030006160A1602161617684F82010E1622F
:10376000E1600170626121764160204600F086FED2
:1037700008B1FFF731FA0020069006A9204601F0B3
:1037800017F908B1FFF728FA01210091019103917F
:1037900000220292049205926946204600F068FFDA
:1037A00008B1FFF719FA0AB010BD10B586B004468B
:1037B0001422002101A8FFF710FA2168B1F1A04FEF
:1037C0001CD11048016841F080510160026802F08C
:1037D000805200920099026842F400320260032194
:1037E000006800F4003000900098019102914FF0C1
:1037F00090400021039101A9FFF7D8FA06B010BD4F
:10380000C40500201410024080B58B488B4901602C
:103810004FF4E13200F01AF800B108E001BD80B5C4
:103820008748884900F00FF800B100E001BDBDE80D
:103830000140FFF7D1B980B58348844900F003F80F
:1038400000B1F4E701BD01604FF4164200230C21E2
:1038500042608360C360036141618361C36103624D
:103860004362FFF7AFBB80B579487A49FFF7EBFFBA
:1038700000B1DCE701BD38B586B004461422002152
:103880006846FFF7AAF921686C4A7348914235D11E
:103890008168724D41F400218160816801F400214A
:1038A00005910599026842F4002202604FF44061DC
:1038B000006800F4002005900222059868480091F5
:1038C000019200210291032205210491039269468D
:1038D000FFF76CFA6348286000218020E860696087
:1038E000A96029616961A961E961284600F0A0FC2D
:1038F00008B1FFF771F9E5666C6243E0514A914205
:103900000BD1416841F480414160416801F480413C
:1039100000F03AF84FF4C0610CE04C4A914214D1E7
:10392000816841F400318160816801F4003100F068
:103930002BF80C21006800F4003005900222059855
:1039400000F029F84FF090401AE0424A914219D114
:10395000816841F480218160816801F480210591B2
:103960000599026842F4802202604FF440710068B9
:1039700000F480200590022205983B4800F00BF8E7
:10398000FFF714FA07B030BD05910599026842F4BB
:1039900000320260704700910192002102910322DF
:1039A0000721049103926946704701222F4938E0AC
:1039B0000000000080B531282D4B294A06D024D3C1
:1039C00033280FD008D3342814D001BD0121184664
:1039D000FFF7C1FA28A014E002211846FFF7BBFA4E
:1039E00028A00EE04FF400711046FFF7B4FA00BFB4
:1039F00027A006E04FF480511046FFF7ACFA00BF55
:103A000026A0BDE8024001F073B801BD10B5174C07
:103A1000184920780870FFF7CDFF2146BDE8104017
:103A200001220548FFF768BB00680449884208BFC7
:103A3000FFF7ECBF70470000C4030020004C0040BB
:103A40004404002000380140C40400200044004029
:103A50004405002000480040141002406406002085
:103A60000008004830040240000400485C080020C0
:103A70000010004828080020746F67676C652031CB
:103A8000200D0A00746F67676C652032200D0A00F4
:103A9000746F67676C652034200D0A00746F676768
:103AA0006C652035200D0A00082280B511481249A6
:103AB0004260022300220160836003618261C2616F
:103AC000026201F029F818B1BDE80140FFF784B89F
:103AD00001BD81B000680849884209D107480268E1
:103AE00042F400020260006800F4000000900098B8
:103AF00001B07047D8000020005C00401C1002405C
:103B00002DE9F843040019D02078DFF86854C10784
:103B100016D5686800F00C0004280AD0686800F028
:103B20000C00082802BF686800F4C030B0F5803F80
:103B300044D100F0F1F918B16068002800F0688104
:103B40002078DFF8406481071ED5686810F00C0FFC
:103B50000AD0686800F00C00082802BF686800F40A
:103B6000C030B0F5004F63D12868C0F34000002892
:103B70001CBFE068012840F04B812968206921F0D2
:103B8000F80141EAC00129602178080740F18680E8
:103B90006069DFF8F413002872D001220A6000F097
:103BA00041FB0746686AC0F34000002876D100F068
:103BB00039FBC01B0228F5D903202CE16068B0F561
:103BC000803F04D1286840F48030286014E008B9B0
:103BD00028680AE0B0F5A02F286806D140F48020BC
:103BE0002860296841F4803105E020F480302860A5
:103BF000296821F480212960606860B100F012FB1F
:103C0000064600F089F900289AD100F00BFB801BD2
:103C10006528F6D3D0E700F005FB064600F07CF9F6
:103C200000288DD000F0FEFA801B6528F6D3C3E78C
:103C3000E068B0B10121316000F0F4FA074628686D
:103C4000C0F3400028B900F0EDFAC01B0228F6D9F5
:103C5000B2E72868216920F0F80040EAC100286036
:103C600092E7306000F0DEFA07462868C0F34000B3
:103C7000002889D000F0D6FAC01B0228F5D99BE7AE
:103C8000086000F0CFFA0746686AC0F3400028B128
:103C900000F0C8FAC01B0228F6D98DE7207841074A
:103CA00063D5E8690027C10009D4E86940F0805075
:103CB000E8610127E86900F0805000900098DFF883
:103CC000CC82D8F80000C10513D4D8F8000040F425
:103CD0008070C8F8000000F0A5FA8146D8F800000E
:103CE000C10506D400F09EFAA0EB09006528F5D3C3
:103CF00062E7A068012808D008B9286A09E0052809
:103D0000286A06D140F004002862286A40F00100C9
:103D100005E0400840002862286A20F0040028627C
:103D200041F28938A06868B100F07CFA8146286ABF
:103D3000C0F34000A0B900F075FAA0EB09004045BF
:103D4000F5D339E700F06EFA8146286AC0F34000E7
:103D500030B100F067FAA0EB09004045F5D32BE73E
:103D60001FB1E86920F08050E861A069002851D0B7
:103D7000696801F00C01082937D0022828D100F029
:103D80004CF807462868C0F3406028B100F04AFAB2
:103D9000C01B0228F6D90FE7E86A616A000941EA08
:103DA0000010E8626868216AE26920F4761008432E
:103DB00010436860012000F031F804462868C0F321
:103DC000406038BB00F02EFA001B0228F6D9F3E65B
:103DD00000F023F804462868C0F34060D0B100F03A
:103DE00021FA001B0228F6D9E6E6012810D06868FF
:103DF000E96AE36900F4C0329A4202BF00F470102D
:103E0000226A904202BF01F00F01606A814201D034
:103E1000012000E00020BDE8F2830020306600F0C1
:103E200001BA2DE9F0410400884645D0584E30686B
:103E300000F00700404502D200F064F83CD1207841
:103E40004C4D810705D56A68A06822F0F002024354
:103E50006A602178C80727D56168012902D100F07E
:103E60005BF804E00229286803D1C0F3406018B968
:103E700022E0C0F34000F8B16868800841EA8001A0
:103E8000696000F0CFF907466868616800F00C00CF
:103E9000B0EB810F08D000F0C5F9C01B41F28931A9
:103EA0008842F1D303202BE0306800F00700804502
:103EB00004D200F027F801D0012021E0207841074A
:103EC00005D56A68E06822F4E06202436A602178FE
:103ED000080706D56968206921F4605141EAC001EC
:103EE000696000F01DF86A682A49234BC2F3031287
:103EF000895CC84018602248006800F087FA0020FA
:103F0000BDE8F0813168C90848EAC1013160306814
:103F100000F00700404570472868C0F340407047F4
:103F20001D490A6802F00C0008280ED11CA3C2F338
:103F30008340185CD1F828101DA301F00F01595CD3
:103F40000E4BB3FBF1F3584370470C4870470A48D7
:103F5000114A006813681149C3F3022206E00648BB
:103F60000D4A006813680D49C3F3C222895CC8403A
:103F700070470000001002400C00002000127A0080
:103F800008000020000042428004424200700040CD
:103F900000200240FC4C000804100240E84D0008DC
:103FA00002030405060708090A0B0C0D0E0F10107A
:103FB0000102030405060708090A0B0C0D0E0F1079
:103FC0002DE9FC410546DFF8E8612868C10353D5B7
:103FD000B0690024C10009D4B06940F08050B061DC
:103FE0000124B06900F0805000900098DFF8C4719F
:103FF0003868C10511D4386840F48070386000F02A
:1040000011F980463868C10507D400F00BF9A0EB20
:1040100008006528F6D30320C8E0F06910F440706A
:104020001EBF696801F4407188421AD0DFF8881118
:10403000F06901220A60002320F440700B60F061F7
:10404000C0070ED500F0EEF80746F069C0F3400057
:1040500038B900F0E7F8C01B41F289318842F4D347
:10406000D9E7F269686822F440720243F2611CB138
:10407000B06920F08050B0612878C10705D5F26A98
:10408000A868920840EA8202F2622978880705D57A
:10409000F16AE86821F440310143F1622978480768
:1040A00005D5F16A286921F440210143F16229789C
:1040B000880605D5F16AE86921F010010143F16233
:1040C0002968880305D53168A86C21F48001014373
:1040D00031602978480605D5F16A286A21F0200167
:1040E0000143F1622968480305D5F16A686A21F045
:1040F00040010143F1622978080705D5F16A686932
:1041000021F440110143F1622978C80605D5F16A0E
:10411000A86921F440010143F1622968880505D5A9
:104120003168E86A21F4000101433160297808060A
:1041300005D5B16AA86A21F4F8710143B162296812
:10414000C80405D5F16A286B21F480710143F1623E
:104150002968C80205D5F16A686B21F080710143B6
:10416000F1622968880205D5F16AA86B21F0007117
:104170000143F1622968480205D5F16AE86B21F430
:1041800080610143F1622968080205D5F16A286C53
:1041900021F400610143F1622968C80105D5F16A83
:1041A000686C21F400510143F1620020BDE8F68102
:1041B00004100240007000404004424262F30F22AB
:1041C00062F31F42401810F0030308D0C91A1FD32E
:1041D000DB0748BF00F8012D28BF20F8022D13008F
:1041E00030B414461546103928BF20E93C00FAD8EF
:1041F000490728BF20E90C0048BF40F8042D89007A
:1042000028BF20F8022D48BF00F8012D30BC7047B0
:10421000C91818BF00F8012DCB0728BF00F8012DE1
:104220007047000001484068704700BF0000002050
:1042300010B5040001D1012010BD022084F8210036
:10424000226813686068A1686FF30D130343E06888
:104250000B432169034360690B43A1690343E06990
:104260000B4303431360204600F0ACF80021A16328
:10427000012084F8210084F82010002010BDF8B53A
:104280000446002594F82000012801D10220F2BD47
:1042900094F821600120012E84F8200024D102200E
:1042A00004F12C0684F82100F560206807687F0877
:1042B0007F000760204600F074F82168306820B164
:1042C0000A6842F00E020A6008E0086840F00A003E
:1042D00008602068016821F004010160206801681D
:1042E00041F00101016002E084F8205002252846D7
:1042F000F2BDF8B500F12802042351690C68016889
:104300000D68966903FA06F73C420FD06F070DD58A
:104310000C68A50603D40C6824F004040C6000F0BB
:104320003BF85168B9B3BDE8F4400847022303FAEB
:1043300006F73C4215D0AF0713D50C68A50606D486
:104340000C6824F00A040C60012180F8211000F0B0
:1043500023F8002180F820101168E1B1BDE8F44095
:104360000847082303FA06F6344214D02B0712D567
:104370000C6824F00E040C60012300F00DF80121FC
:10438000116180F82110002180F82010916811B18E
:10439000BDE8F4400847F1BD916954698B40636002
:1043A000704770B5046CC66B0125A5407560046844
:1043B00063604068102802D1A260E16070BDA16016
:1043C000E26070BD10B502680A4B9A4207D20A49F2
:1043D0008A181424B2FBF4F18900084A06E008495F
:1043E0008A181423B2FBF3F18900064A0164C26300
:1043F00010BD000008040240F8FFFDBF00000240AD
:10440000F8FBFDBF000402407047704738B50D4D02
:104410000D4B2A7804464FF47A711868B1FBF2F21A
:10442000B0FBF2F0FEF7A2FC50B9102C08D200222B
:1044300021464FF0FF30FEF771FCAC60002032BD2A
:10444000012032BD000000200C0000200A4881B08D
:10445000016841F001010160026802F0010200926E
:104460000099426842F080524260406800F08050FB
:104470000090009801B07047181002407CB50025EC
:10448000044600950CB9012076BD04F13006306970
:10449000C1064DD4306998BB7561F0613073B56168
:1044A0002046FFF782F920688168C80028D400F010
:1044B000D5F805463069C10622D4280020D13069DC
:1044C000DFF88421DFF8843120F4885040F00200C6
:1044D00030612068816821F04051816020688168E6
:1044E00041F0805181600A201168B1FBF3F343432E
:1044F000009302E00098401E009000980028F9D137
:1045000020688168CA0002D58068810010D53069B2
:1045100020F0020040F0100000F08AF830693169A4
:1045200021F0020141F0100131610125284676BDDC
:104530003069C106F3D42800F1D1206881684A07A8
:10454000EDD4316921F4807141F002013161B0F1A3
:10455000A04F82680CBFDFF8F8104FF0A04102F0C6
:104560000302012A02D10068C2070DD400F066F8E8
:1045700002D10868C10707D4DFF8E8100A6860684C
:1045800022F4403202430A607168607EE2680129C9
:1045900014BF4FF48053002343EA4033A168134310
:1045A00094F820200B43012A0ED130B9606A401ED6
:1045B000400440F48030034306E0306920F00200FC
:1045C00040F0200000F034F8A16A012902D0E06A2E
:1045D00001430B432168886810F00C0F0AD1CA68A8
:1045E000DFF884000240CA603078217E400040EA53
:1045F000813003432168DFF87400CA680240134326
:10460000CB60216920680129016B05D1E2690909A4
:10461000521E42EA011101E009090901016300206B
:104620007061316921F0020141F0010131617DE7E2
:104630003061706940F0010070617047886800F077
:1046400003000128704700000C00002040420F00CA
:10465000000100500446206881687047204600F041
:104660000BBA000008030050FDBFFFFF07C0F0FFBA
:104670002DE9F84102460846002102F13C04009170
:104680002578012D08BF022000F01B810123237033
:1046900013689D686E0700F10F81476805681F2643
:1046A000052F4FF0060C0BD20CFB07F7D3F830C0E8
:1046B000BE402CEA060605FA07F737431F631DE0E4
:1046C0000A2F08D27F1F17FB0CF7D3F834C000F075
:1046D000FAF85D6312E00F2F08D20A3F17FB0CF7C0
:1046E000D3F838C000F0EFF89D6307E00F3F17FBE9
:1046F0000CF7D3F83CC000F0E6F8DD630725166838
:10470000B36813F00C0F77D1036887680A2B0DD3B9
:104710000A3B03EB430CD6F818E005FA0CF32EEA3B
:10472000030307FA0CF71F43B7610BE003EB430CDD
:10473000D6F814E005FA0CF32EEA030307FA0CF797
:104740001F43776113684769DE68D0F810E0F60808
:10475000760006F00606AEF1010E07FA06F6BEF187
:10476000030FDFF878732DD8DFE80EF0020915216A
:10477000D3F86080D0F800C000F0C2F83CE0D3F875
:1047800064C0D0F800E007EA0C0747EA8E6700F043
:10479000B3F85E6630E0D3F868C0D0F800E007EA0E
:1047A0000C0747EA8E6700F0A7F89E6624E0D3F86E
:1047B0006CC0D0F800E007EA0C0747EA8E6700F00B
:1047C0009BF818E01E6E076800F0E6F813685E6E4E
:1047D000076800F0D7F813689E6E076800F0C8F805
:1047E0001368DE6E076806F0F846B6EB876F03D1F4
:1047F000DE6E26F00046DE66136800F078F802D11F
:104800001E68F7075AD40668012707FA06F6C76834
:10481000012F02D000F064F806E000F05BF80768B2
:104820008368166800F075F80068DFF8803110289A
:1048300002D11D682E0203E0112803D11D68EE018C
:104840003CD404E0122839D11D686E0236D41268B7
:104850009668B2F1A04F0CBFDFF818524FF0A04598
:1048600000F046F802D11668F70725D4AE6800F0CC
:104870003FF802D12D68EE071ED410280CD1B2F1FA
:10488000A04F1BD100F065F8009800281EBF0098CB
:10489000401E0090F8D111E0112806D1B2F1A04FCE
:1048A0000CD1186840F0807004E0122806D1186816
:1048B00040F48000186001E000F045F8002020700E
:1048C0000846BDE8F281BE402CEA0606BD403543ED
:1048D00070470000D3F8B0703E43C3F8B060704733
:1048E000D3F8B05025EA0606C3F8B06070479E685A
:1048F00006F00306012E70473E4346F0004670471F
:1049000007EA080747EA8C673E4346F000461E6602
:1049100070470A2F0BD3093F07EB4707D6F818C09B
:10492000BD402CEA0505BB401D43B56170477F1CA7
:1049300007EB4707D6F814C0BD402CEA0505BB407D
:104940001D4375617047606840F020006060012180
:1049500070471868DFF88821DFF8885140F40000BC
:1049600018600A201368B3FBF5F5454300957047BE
:1049700006F0F846B6EB876F03D19E6E26F0004630
:104980009E66704706F0F846B6EB876F03D15E6E01
:1049900026F000465E66704706F0F846B6EB876F75
:1049A00003D11E6E26F000461E66704708030050B5
:1049B000F0B5036800F130040022B3F1A04F267B6C
:1049C0000CBF2C4D4FF0A045012E01D10220F0BDAF
:1049D000012626739B685E0742D4AB685E073FD40E
:1049E0000B68414E414F13B33B6894F800E023F449
:1049F000604C4B6843EA0C0343EA4E333B6000686B
:104A0000836803F00303012B02D10068C3072CD491
:104A1000A86800F00300012802D12868C30724D445
:104A20003D68086889682E4006430E4316E03B68DF
:104A300023F460433B600068816801F003010129B1
:104A400002D10068C10710D4A86800F00300012853
:104A500002D12868C10708D4386806403E6004E0E7
:104A6000216941F0200121610122002020731046BC
:104A7000F0BD00000001005038B5FFF7EBFD01F07C
:104A8000030101291BD10168CA0718D5816801F00B
:104A90000D01012912D1816841F0020181600320DA
:104AA00021680860FFF7BEFB054620688168C807DB
:104AB00005D5FFF7B7FB401B0328F6D301E0002024
:104AC00032BD00F001F832BD206C40F010002064CF
:104AD000606C40F0010060640120704700F0FF83CB
:104AE0000C00002040420F00E0F0FFFF08030050E0
:104AF0000EB4C0B5024603A800210190009101AB9D
:104B00000121044878440C30FBF744FB06BC5DF8F7
:104B100010FB00BF9702000078B5040085B008BF05
:104B2000012045D004F52A75687820B90021297044
:104B30002046FEF7CEFF032068700026206800F0B4
:104B400039F8002128200EE010FB01F2224428321F
:104B5000012353701170D1810023491CD670136159
:104B600056619361C9B262689142EDD300210DE0B4
:104B700010FB01F2224402F5B4720023117053704D
:104B8000491CD370136153619361C9B26668B14225
:104B9000EED383B0211D68462022FCF73BFC0EBCFF
:104BA000206800F00DF8002084F8240001216970CD
:104BB00006B070BDB0F8402044F2FF0100F00CB820
:104BC0000EB4012120F8401F002202808280028260
:104BD000002003B0704700000A40A0F840200020E9
:104BE0007047F0B40246106895681318506803EBDC
:104BF0005004C0071CD54D441AE013F8017B05F89A
:104C0000017B491EF9D198B113F8011BC6F3810647
:104C1000032E08BF13F8016B01EB06214942801CEB
:104C2000294405D011F8016B05F8016B401EF9D13C
:104C3000A3420ED013F8016B16F0030104BF13F862
:104C4000011BC91C30090F28DBD113F8010B0F30F1
:104C5000D7E7F0BC02F10C00704700007047FEE798
:104C6000FEE7FEE7FEE770477047704780B500F04B
:104C700021F8BDE8014000F025B880B50948FDF7EE
:104C8000C5F9BDE802400848FDF7C0B980B5054840
:104C9000FDF7BCF9BDE802400448FDF7B7B9044888
:104CA000FFF727BBA8060020E807002068070020C0
:104CB000640600200248416802788A184260704702
:104CC000000000200548B0F90020511CB2F57A7FA1
:104CD000A8BF00210180704700000000700800207C
:104CE0000448054A016841F4700101604FF000601A
:104CF0001060704788ED00E008ED00E00000000063
:104D000000000000010203040607080910B5074966
:104D100079441831064C7C44163404E00A68081DB6
:104D2000114488470146A142F8D110BD2C00000073
:104D3000480000004EF68851CEF20001086840F4A9
:104D400070000860BFF34F8FBFF36F8F4FF000709C
:104D5000E1EE100A7047000003C5FFFF9C0700004A
:104D6000D8000020000000007BFEFFFF8001000053
:104D70009A0000000000002000F00DF8002801D08B
:104D8000FFF7C4FFAFF300800020AFF30080FDF712
:104D9000AFFE00F002F80120704700F001B80000FB
:104DA00007463846FDF7DAF8FBE738B504460D4606
:104DB000284600F005F8A84218BF0024204632BD5E
:104DC0000149FDF789BE00BF9000002001488047DF
:104DD00001480047E14C0008DD4D0008AFF30080BA
:104DE000FFF7A8FFFFF7C8FF00000000010203045F
:104DF000FFF7FEBFFFF7FEBFFFF7FEBFFFF7FEBFE7
:104E0000FFF7FEBFFFF7FEBFFFF7FEBFFFF7FEBFD6
:104E1000FFF7FEBFFFF7FEBFFFF7FEBFFFF7FEBFC6
:104E2000FFF7FEBFFFF7FEBFFFF7FEBFFFF7FEBFB6
:104E3000FFF7FEBFFFF7FEBFFFF7FEBFFFF7FEBFA6
:104E4000FFF7FEBFFFF7FEBFFFF7FEBFFFF7FEBF96
:104E5000FFF7FEBFFFF7FEBFFFF7FEBFFFF7FEBF86
:104E6000FFF7FEBFFFF7FEBFFFF7FEBFFFF7FEBF76
:104E7000FFF7FEBFFFF7FEBFFFF7FEBFFFF7FEBF66
:104E8000FFF7FEBFFFF7FEBFFFF7FEBFFFF7FEBF56
:104E9000FFF7FEBFFFF7FEBFFFF7FEBFFFF7FEBF46
:104EA000FFF7FEBFFFF7FEBFFFF7FEBFFFF7FEBF36
:104EB000FFF7FEBFFFF7FEBFFFF7FEBFFFF7FEBF26
:104EC000FFF7FEBFFFF7FEBFFFF7FEBFFFF7FEBF16
:104ED000FFF7FEBFFFF7FEBFFFF7FEBFFFF7FEBF06
:104EE000FFF7FEBFFFF7FEBFFFF7FEBF4301000164
:104EF000221008F00507127A00FA1400080452FF85
:104F000001E3BA131410010000CA0C214C1148F33C
:104F100016200001123948212C4327133C2101108F
:104F20000702040101140600206404521404211B2A
:094F3000610812D460F212C064A1
:0400000508004DDDC5
:00000001FF
